{"abi":[{"type":"function","name":"registerUser","inputs":[{"name":"eHash","type":"bytes32","internalType":"bytes32"},{"name":"addr","type":"address","internalType":"address"}],"outputs":[],"stateMutability":"nonpayable"},{"type":"function","name":"usersByAddr","inputs":[{"name":"","type":"address","internalType":"address"}],"outputs":[{"name":"","type":"bytes32","internalType":"bytes32"}],"stateMutability":"view"},{"type":"function","name":"usersByHash","inputs":[{"name":"","type":"bytes32","internalType":"bytes32"}],"outputs":[{"name":"eHash","type":"bytes32","internalType":"bytes32"},{"name":"addr","type":"address","internalType":"address"},{"name":"exists","type":"bool","internalType":"bool"}],"stateMutability":"view"},{"type":"function","name":"verifySignature","inputs":[{"name":"eHash","type":"bytes32","internalType":"bytes32"},{"name":"message","type":"bytes32","internalType":"bytes32"},{"name":"r","type":"bytes32","internalType":"bytes32"},{"name":"s","type":"bytes32","internalType":"bytes32"},{"name":"v","type":"uint8","internalType":"uint8"}],"outputs":[{"name":"","type":"bool","internalType":"bool"}],"stateMutability":"view"},{"type":"event","name":"UserRegistered","inputs":[{"name":"eHash","type":"bytes32","indexed":true,"internalType":"bytes32"},{"name":"addr","type":"address","indexed":true,"internalType":"address"}],"anonymous":false},{"type":"error","name":"ECDSAInvalidSignature","inputs":[]},{"type":"error","name":"ECDSAInvalidSignatureLength","inputs":[{"name":"length","type":"uint256","internalType":"uint256"}]},{"type":"error","name":"ECDSAInvalidSignatureS","inputs":[{"name":"s","type":"bytes32","internalType":"bytes32"}]}],"bytecode":{"object":"0x608060405234801561000f575f80fd5b5061060f8061001d5f395ff3fe608060405234801561000f575f80fd5b506004361061004a575f3560e01c80630c18abca1461004e5780633926747914610076578063a61afa681461008b578063d7b8ada0146100eb575b5f80fd5b61006161005c3660046104fb565b610118565b60405190151581526020015b60405180910390f35b610089610084366004610564565b6101e1565b005b6100c661009936600461058e565b5f60208190529081526040902080546001909101546001600160a01b03811690600160a01b900460ff1683565b604080519384526001600160a01b03909216602084015215159082015260600161006d565b61010a6100f93660046105a5565b60016020525f908152604090205481565b60405190815260200161006d565b5f85815260208190526040812060010154600160a01b900460ff1661017a5760405162461bcd60e51b8152602060048201526013602482015272155cd95c881b9bdd081c9959da5cdd195c9959606a1b60448201526064015b60405180910390fd5b7f19457468657265756d205369676e6564204d6573736167653a0a3332000000005f908152601c869052603c8120906101b58285888861034b565b5f898152602081905260409020600101546001600160a01b039182169116149250505095945050505050565b5f82815260208190526040902060010154600160a01b900460ff16156102495760405162461bcd60e51b815260206004820152601760248201527f4861736820616c726561647920726567697374657265640000000000000000006044820152606401610171565b6001600160a01b0381165f90815260016020526040902054156102ae5760405162461bcd60e51b815260206004820152601a60248201527f4164647265737320616c726561647920726567697374657265640000000000006044820152606401610171565b604080516060810182528381526001600160a01b03808416602080840182815260018587018181525f8a8152808552888120975188559251968201805491511515600160a01b026001600160a81b0319909216979096169690961795909517909355818352929092528281208590559151909184917ff62ba47fe3ff610889160f02571396e86e21b7aadcbde2719192e206853b331f9190a35050565b5f805f8061035b88888888610377565b92509250925061036b828261043f565b50909695505050505050565b5f80807f7fffffffffffffffffffffffffffffff5d576e7357a4501ddfe92f46681b20a08411156103b057505f91506003905082610435565b604080515f808252602082018084528a905260ff891692820192909252606081018790526080810186905260019060a0016020604051602081039080840390855afa158015610401573d5f803e3d5ffd5b5050604051601f1901519150506001600160a01b03811661042c57505f925060019150829050610435565b92505f91508190505b9450945094915050565b5f826003811115610452576104526105c5565b0361045b575050565b600182600381111561046f5761046f6105c5565b0361048d5760405163f645eedf60e01b815260040160405180910390fd5b60028260038111156104a1576104a16105c5565b036104c25760405163fce698f760e01b815260048101829052602401610171565b60038260038111156104d6576104d66105c5565b036104f7576040516335e2f38360e21b815260048101829052602401610171565b5050565b5f805f805f60a0868803121561050f575f80fd5b85359450602086013593506040860135925060608601359150608086013560ff8116811461053b575f80fd5b809150509295509295909350565b80356001600160a01b038116811461055f575f80fd5b919050565b5f8060408385031215610575575f80fd5b8235915061058560208401610549565b90509250929050565b5f6020828403121561059e575f80fd5b5035919050565b5f602082840312156105b5575f80fd5b6105be82610549565b9392505050565b634e487b7160e01b5f52602160045260245ffdfea2646970667358221220559803284dc7eec5f4422ba3cec3fdf7440e557a11c54ea16ae965a042c43aee64736f6c63430008140033","linkReferences":{}},"methodIdentifiers":{"registerUser(bytes32,address)":"39267479","usersByAddr(address)":"d7b8ada0","usersByHash(bytes32)":"a61afa68","verifySignature(bytes32,bytes32,bytes32,bytes32,uint8)":"0c18abca"},"id":35}